{
  "_format": "hh-sol-artifact-1",
  "contractName": "BattleContract1",
  "sourceName": "contracts/BattleContract1.sol",
  "abi": [
    {
      "inputs": [
        {
          "internalType": "uint256",
          "name": "_battleMasterChampionId",
          "type": "uint256"
        }
      ],
      "stateMutability": "nonpayable",
      "type": "constructor"
    },
    {
      "inputs": [],
      "name": "battle_master_champion_id",
      "outputs": [
        {
          "internalType": "uint256",
          "name": "",
          "type": "uint256"
        }
      ],
      "stateMutability": "view",
      "type": "function"
    },
    {
      "inputs": [],
      "name": "challengeBattlemaster",
      "outputs": [],
      "stateMutability": "nonpayable",
      "type": "function"
    },
    {
      "inputs": [
        {
          "internalType": "address",
          "name": "",
          "type": "address"
        }
      ],
      "name": "challengerMap",
      "outputs": [
        {
          "internalType": "uint256",
          "name": "currentChampionId",
          "type": "uint256"
        }
      ],
      "stateMutability": "view",
      "type": "function"
    },
    {
      "inputs": [
        {
          "internalType": "uint256",
          "name": "",
          "type": "uint256"
        }
      ],
      "name": "championMap",
      "outputs": [
        {
          "internalType": "string",
          "name": "name",
          "type": "string"
        },
        {
          "internalType": "uint256",
          "name": "strength",
          "type": "uint256"
        },
        {
          "internalType": "bool",
          "name": "hidden",
          "type": "bool"
        },
        {
          "internalType": "string",
          "name": "ipfsHash",
          "type": "string"
        }
      ],
      "stateMutability": "view",
      "type": "function"
    },
    {
      "inputs": [
        {
          "internalType": "address",
          "name": "_challenger",
          "type": "address"
        }
      ],
      "name": "getChallenger",
      "outputs": [
        {
          "internalType": "uint256",
          "name": "",
          "type": "uint256"
        },
        {
          "components": [
            {
              "internalType": "uint256",
              "name": "fightTimestamp",
              "type": "uint256"
            },
            {
              "internalType": "bool",
              "name": "didChallengerWin",
              "type": "bool"
            },
            {
              "internalType": "string",
              "name": "battlemasterChampion",
              "type": "string"
            },
            {
              "internalType": "string",
              "name": "challengerChampion",
              "type": "string"
            }
          ],
          "internalType": "struct BattleContract1.FightRecord[]",
          "name": "",
          "type": "tuple[]"
        }
      ],
      "stateMutability": "view",
      "type": "function"
    },
    {
      "inputs": [
        {
          "internalType": "uint256",
          "name": "_championId",
          "type": "uint256"
        }
      ],
      "name": "registerAsChallenger",
      "outputs": [],
      "stateMutability": "nonpayable",
      "type": "function"
    },
    {
      "inputs": [
        {
          "internalType": "address",
          "name": "_challenger",
          "type": "address"
        },
        {
          "internalType": "uint256",
          "name": "_championId",
          "type": "uint256"
        }
      ],
      "name": "setChallengerChampionId",
      "outputs": [],
      "stateMutability": "nonpayable",
      "type": "function"
    }
  ],
  "bytecode": "0x60806040523480156200001157600080fd5b5060405162001cbd38038062001cbd8339818101604052810190620000379190620006c4565b8060008190555060405180608001604052806040518060400160405280600481526020017f676e6174000000000000000000000000000000000000000000000000000000008152508152602001600181526020016000151581526020016040518060600160405280602e815260200162001b7b602e913981525060016000600181526020019081526020016000206000820151816000019081620000dc919062000966565b506020820151816001015560408201518160020160006101000a81548160ff02191690831515021790555060608201518160030190816200011e919062000966565b5090505060405180608001604052806040518060400160405280600581526020017f6d6f7573650000000000000000000000000000000000000000000000000000008152508152602001600481526020016000151581526020016040518060600160405280602e815260200162001c8f602e913981525060016000600281526020019081526020016000206000820151816000019081620001c0919062000966565b506020820151816001015560408201518160020160006101000a81548160ff021916908315150217905550606082015181600301908162000202919062000966565b5090505060405180608001604052806040518060400160405280600781526020017f7465726d697465000000000000000000000000000000000000000000000000008152508152602001600281526020016000151581526020016040518060600160405280602e815260200162001c05602e913981525060016000600381526020019081526020016000206000820151816000019081620002a4919062000966565b506020820151816001015560408201518160020160006101000a81548160ff0219169083151502179055506060820151816003019081620002e6919062000966565b5090505060405180608001604052806040518060400160405280600581526020017f736b756e6b0000000000000000000000000000000000000000000000000000008152508152602001600381526020016000151581526020016040518060600160405280602e815260200162001bd7602e91398152506001600060048152602001908152602001600020600082015181600001908162000388919062000966565b506020820151816001015560408201518160020160006101000a81548160ff0219169083151502179055506060820151816003019081620003ca919062000966565b5090505060405180608001604052806040518060400160405280600581526020017f736c6f74680000000000000000000000000000000000000000000000000000008152508152602001600a81526020016000151581526020016040518060600160405280602e815260200162001c33602e9139815250600160006005815260200190815260200160002060008201518160000190816200046c919062000966565b506020820151816001015560408201518160020160006101000a81548160ff0219169083151502179055506060820151816003019081620004ae919062000966565b5090505060405180608001604052806040518060400160405280600681526020017f647261676f6e000000000000000000000000000000000000000000000000000081525081526020016103e881526020016001151581526020016040518060600160405280602e815260200162001ba9602e91398152506001600060068152602001908152602001600020600082015181600001908162000551919062000966565b506020820151816001015560408201518160020160006101000a81548160ff021916908315150217905550606082015181600301908162000593919062000966565b5090505060405180608001604052806040518060400160405280600981526020017f6e616e6f2d626f747300000000000000000000000000000000000000000000008152508152602001620186a081526020016001151581526020016040518060600160405280602e815260200162001c61602e91398152506001600060078152602001908152602001600020600082015181600001908162000637919062000966565b506020820151816001015560408201518160020160006101000a81548160ff021916908315150217905550606082015181600301908162000679919062000966565b509050505062000a4d565b600080fd5b6000819050919050565b6200069e8162000689565b8114620006aa57600080fd5b50565b600081519050620006be8162000693565b92915050565b600060208284031215620006dd57620006dc62000684565b5b6000620006ed84828501620006ad565b91505092915050565b600081519050919050565b7f4e487b7100000000000000000000000000000000000000000000000000000000600052604160045260246000fd5b7f4e487b7100000000000000000000000000000000000000000000000000000000600052602260045260246000fd5b600060028204905060018216806200077857607f821691505b6020821081036200078e576200078d62000730565b5b50919050565b60008190508160005260206000209050919050565b60006020601f8301049050919050565b600082821b905092915050565b600060088302620007f87fffffffffffffffffffffffffffffffffffffffffffffffffffffffffffffffff82620007b9565b620008048683620007b9565b95508019841693508086168417925050509392505050565b6000819050919050565b600062000847620008416200083b8462000689565b6200081c565b62000689565b9050919050565b6000819050919050565b620008638362000826565b6200087b62000872826200084e565b848454620007c6565b825550505050565b600090565b6200089262000883565b6200089f81848462000858565b505050565b5b81811015620008c757620008bb60008262000888565b600181019050620008a5565b5050565b601f8211156200091657620008e08162000794565b620008eb84620007a9565b81016020851015620008fb578190505b620009136200090a85620007a9565b830182620008a4565b50505b505050565b600082821c905092915050565b60006200093b600019846008026200091b565b1980831691505092915050565b600062000956838362000928565b9150826002028217905092915050565b6200097182620006f6565b67ffffffffffffffff8111156200098d576200098c62000701565b5b6200099982546200075f565b620009a6828285620008cb565b600060209050601f831160018114620009de5760008415620009c9578287015190505b620009d5858262000948565b86555062000a45565b601f198416620009ee8662000794565b60005b8281101562000a1857848901518255600182019150602085019450602081019050620009f1565b8683101562000a38578489015162000a34601f89168262000928565b8355505b6001600288020188555050505b505050505050565b61111e8062000a5d6000396000f3fe608060405234801561001057600080fd5b506004361061007d5760003560e01c8063be42d17b1161005b578063be42d17b14610104578063c0e692211461010e578063cf40f84b1461013e578063f53864901461015a5761007d565b806310c605a4146100825780632164a622146100b557806369faa193146100e6575b600080fd5b61009c6004803603810190610097919061098b565b610176565b6040516100ac9493929190610a72565b60405180910390f35b6100cf60048036038101906100ca9190610b23565b6102c3565b6040516100dd929190610ce4565b60405180910390f35b6100ee6104bf565b6040516100fb9190610d14565b60405180910390f35b61010c6104c5565b005b61012860048036038101906101239190610b23565b6107ad565b6040516101359190610d14565b60405180910390f35b6101586004803603810190610153919061098b565b6107cb565b005b610174600480360381019061016f9190610d2f565b61082b565b005b600160205280600052604060002060009150905080600001805461019990610d9e565b80601f01602080910402602001604051908101604052809291908181526020018280546101c590610d9e565b80156102125780601f106101e757610100808354040283529160200191610212565b820191906000526020600020905b8154815290600101906020018083116101f557829003601f168201915b5050505050908060010154908060020160009054906101000a900460ff169080600301805461024090610d9e565b80601f016020809104026020016040519081016040528092919081815260200182805461026c90610d9e565b80156102b95780601f1061028e576101008083540402835291602001916102b9565b820191906000526020600020905b81548152906001019060200180831161029c57829003601f168201915b5050505050905084565b600060606000600260008573ffffffffffffffffffffffffffffffffffffffff1673ffffffffffffffffffffffffffffffffffffffff168152602001908152602001600020905080600001548160010180805480602002602001604051908101604052809291908181526020016000905b828210156104af5783829060005260206000209060040201604051806080016040529081600082015481526020016001820160009054906101000a900460ff1615151515815260200160028201805461038c90610d9e565b80601f01602080910402602001604051908101604052809291908181526020018280546103b890610d9e565b80156104055780601f106103da57610100808354040283529160200191610405565b820191906000526020600020905b8154815290600101906020018083116103e857829003601f168201915b5050505050815260200160038201805461041e90610d9e565b80601f016020809104026020016040519081016040528092919081815260200182805461044a90610d9e565b80156104975780601f1061046c57610100808354040283529160200191610497565b820191906000526020600020905b81548152906001019060200180831161047a57829003601f168201915b50505050508152505081526020019060010190610334565b5050505090509250925050915091565b60005481565b6000600260003373ffffffffffffffffffffffffffffffffffffffff1673ffffffffffffffffffffffffffffffffffffffff168152602001908152602001600020600001540361054a576040517f08c379a000000000000000000000000000000000000000000000000000000000815260040161054190610e1b565b60405180910390fd5b6000600260003373ffffffffffffffffffffffffffffffffffffffff1673ffffffffffffffffffffffffffffffffffffffff168152602001908152602001600020905060008160000154905060006001600083815260200190815260200160002090506000600160008054815260200190815260200160002090506000826001015490506000826001015490506000818311905060006040518060800160405280428152602001831515815260200186600001805461060890610d9e565b80601f016020809104026020016040519081016040528092919081815260200182805461063490610d9e565b80156106815780601f1061065657610100808354040283529160200191610681565b820191906000526020600020905b81548152906001019060200180831161066457829003601f168201915b5050505050815260200187600001805461069a90610d9e565b80601f01602080910402602001604051908101604052809291908181526020018280546106c690610d9e565b80156107135780601f106106e857610100808354040283529160200191610713565b820191906000526020600020905b8154815290600101906020018083116106f657829003601f168201915b50505050508152509050876001018190806001815401808255809150506001900390600052602060002090600402016000909190919091506000820151816000015560208201518160010160006101000a81548160ff021916908315150217905550604082015181600201908161078a9190611016565b5060608201518160030190816107a09190611016565b5050505050505050505050565b60026020528060005260406000206000915090508060000154905081565b6000600260003373ffffffffffffffffffffffffffffffffffffffff1673ffffffffffffffffffffffffffffffffffffffff1681526020019081526020016000209050818160000181905550806001016000610827919061087c565b5050565b6000600260008473ffffffffffffffffffffffffffffffffffffffff1673ffffffffffffffffffffffffffffffffffffffff1681526020019081526020016000209050818160000181905550505050565b508054600082556004029060005260206000209081019061089d91906108a0565b50565b5b808211156108ef576000808201600090556001820160006101000a81549060ff02191690556002820160006108d691906108f3565b6003820160006108e691906108f3565b506004016108a1565b5090565b5080546108ff90610d9e565b6000825580601f106109115750610930565b601f01602090049060005260206000209081019061092f9190610933565b5b50565b5b8082111561094c576000816000905550600101610934565b5090565b600080fd5b6000819050919050565b61096881610955565b811461097357600080fd5b50565b6000813590506109858161095f565b92915050565b6000602082840312156109a1576109a0610950565b5b60006109af84828501610976565b91505092915050565b600081519050919050565b600082825260208201905092915050565b60005b838110156109f25780820151818401526020810190506109d7565b60008484015250505050565b6000601f19601f8301169050919050565b6000610a1a826109b8565b610a2481856109c3565b9350610a348185602086016109d4565b610a3d816109fe565b840191505092915050565b610a5181610955565b82525050565b60008115159050919050565b610a6c81610a57565b82525050565b60006080820190508181036000830152610a8c8187610a0f565b9050610a9b6020830186610a48565b610aa86040830185610a63565b8181036060830152610aba8184610a0f565b905095945050505050565b600073ffffffffffffffffffffffffffffffffffffffff82169050919050565b6000610af082610ac5565b9050919050565b610b0081610ae5565b8114610b0b57600080fd5b50565b600081359050610b1d81610af7565b92915050565b600060208284031215610b3957610b38610950565b5b6000610b4784828501610b0e565b91505092915050565b600081519050919050565b600082825260208201905092915050565b6000819050602082019050919050565b610b8581610955565b82525050565b610b9481610a57565b82525050565b600082825260208201905092915050565b6000610bb6826109b8565b610bc08185610b9a565b9350610bd08185602086016109d4565b610bd9816109fe565b840191505092915050565b6000608083016000830151610bfc6000860182610b7c565b506020830151610c0f6020860182610b8b565b5060408301518482036040860152610c278282610bab565b91505060608301518482036060860152610c418282610bab565b9150508091505092915050565b6000610c5a8383610be4565b905092915050565b6000602082019050919050565b6000610c7a82610b50565b610c848185610b5b565b935083602082028501610c9685610b6c565b8060005b85811015610cd25784840389528151610cb38582610c4e565b9450610cbe83610c62565b925060208a01995050600181019050610c9a565b50829750879550505050505092915050565b6000604082019050610cf96000830185610a48565b8181036020830152610d0b8184610c6f565b90509392505050565b6000602082019050610d296000830184610a48565b92915050565b60008060408385031215610d4657610d45610950565b5b6000610d5485828601610b0e565b9250506020610d6585828601610976565b9150509250929050565b7f4e487b7100000000000000000000000000000000000000000000000000000000600052602260045260246000fd5b60006002820490506001821680610db657607f821691505b602082108103610dc957610dc8610d6f565b5b50919050565b7f4368616c6c656e676572206e6f74207265676973746572656400000000000000600082015250565b6000610e056019836109c3565b9150610e1082610dcf565b602082019050919050565b60006020820190508181036000830152610e3481610df8565b9050919050565b7f4e487b7100000000000000000000000000000000000000000000000000000000600052604160045260246000fd5b60008190508160005260206000209050919050565b60006020601f8301049050919050565b600082821b905092915050565b600060088302610ecc7fffffffffffffffffffffffffffffffffffffffffffffffffffffffffffffffff82610e8f565b610ed68683610e8f565b95508019841693508086168417925050509392505050565b6000819050919050565b6000610f13610f0e610f0984610955565b610eee565b610955565b9050919050565b6000819050919050565b610f2d83610ef8565b610f41610f3982610f1a565b848454610e9c565b825550505050565b600090565b610f56610f49565b610f61818484610f24565b505050565b5b81811015610f8557610f7a600082610f4e565b600181019050610f67565b5050565b601f821115610fca57610f9b81610e6a565b610fa484610e7f565b81016020851015610fb3578190505b610fc7610fbf85610e7f565b830182610f66565b50505b505050565b600082821c905092915050565b6000610fed60001984600802610fcf565b1980831691505092915050565b60006110068383610fdc565b9150826002028217905092915050565b61101f826109b8565b67ffffffffffffffff81111561103857611037610e3b565b5b6110428254610d9e565b61104d828285610f89565b600060209050601f831160018114611080576000841561106e578287015190505b6110788582610ffa565b8655506110e0565b601f19841661108e86610e6a565b60005b828110156110b657848901518255600182019150602085019450602081019050611091565b868310156110d357848901516110cf601f891682610fdc565b8355505b6001600288020188555050505b50505050505056fea264697066735822122009408763da1a15214c949d95fc1318e955d510f92ef803db26e06cce8766026364736f6c63430008180033516d57414b6a58314c556e623376326a514a335a643947753332744641657777746a5a75414266637a73364d6a32516d5050573252673147596f426258624d627368334d6b366d394261676469566a6352706f4c7978446b6b466263516d4e7437586574386f4c656269506552545a437034714633436a685747346974677077395a4a6d707977477a33516d5264434d784c745543524e746977704c736550465a36514141695a50744e7844554d5573765a75786f586543516d535842794e59437533566f463251366d3947793878756770375661345873755576534d614d536a5544316f75516d4e75745452424e596f7143436d58434431786b7651714e685935445a4275706371554a687853563375484b31516d62704d6a626773464d614c566d74674a663141645852587770704a6d7547354e475534344270396a71734b64",
  "linkReferences": {},
  "deployedLinkReferences": {}
}