{
  "_format": "hh-sol-artifact-1",
  "contractName": "BattleContract",
  "sourceName": "contracts/BattleContract.sol",
  "abi": [
    {
      "inputs": [
        {
          "internalType": "uint256",
          "name": "_battleMasterChampionId",
          "type": "uint256"
        }
      ],
      "stateMutability": "nonpayable",
      "type": "constructor"
    },
    {
      "inputs": [],
      "name": "battle_master_champion_id",
      "outputs": [
        {
          "internalType": "uint256",
          "name": "",
          "type": "uint256"
        }
      ],
      "stateMutability": "view",
      "type": "function"
    },
    {
      "inputs": [
        {
          "internalType": "address",
          "name": "",
          "type": "address"
        }
      ],
      "name": "challengerMap",
      "outputs": [
        {
          "internalType": "uint256",
          "name": "currentChampionId",
          "type": "uint256"
        }
      ],
      "stateMutability": "view",
      "type": "function"
    },
    {
      "inputs": [
        {
          "internalType": "uint256",
          "name": "",
          "type": "uint256"
        }
      ],
      "name": "championMap",
      "outputs": [
        {
          "internalType": "string",
          "name": "name",
          "type": "string"
        },
        {
          "internalType": "uint256",
          "name": "strength",
          "type": "uint256"
        },
        {
          "internalType": "bool",
          "name": "hidden",
          "type": "bool"
        }
      ],
      "stateMutability": "view",
      "type": "function"
    }
  ],
  "bytecode": "0x60806040523480156200001157600080fd5b5060405162000d2138038062000d21833981810160405281019062000037919062000543565b8060008190555060405180606001604052806040518060400160405280600481526020017f676e6174000000000000000000000000000000000000000000000000000000008152508152602001600181526020016000151581525060016000600181526020019081526020016000206000820151816000019081620000bd9190620007e5565b506020820151816001015560408201518160020160006101000a81548160ff02191690831515021790555090505060405180606001604052806040518060400160405280600581526020017f6d6f75736500000000000000000000000000000000000000000000000000000081525081526020016004815260200160001515815250600160006002815260200190815260200160002060008201518160000190816200016a9190620007e5565b506020820151816001015560408201518160020160006101000a81548160ff02191690831515021790555090505060405180606001604052806040518060400160405280600781526020017f7465726d697465000000000000000000000000000000000000000000000000008152508152602001600281526020016000151581525060016000600381526020019081526020016000206000820151816000019081620002179190620007e5565b506020820151816001015560408201518160020160006101000a81548160ff02191690831515021790555090505060405180606001604052806040518060400160405280600581526020017f736b756e6b0000000000000000000000000000000000000000000000000000008152508152602001600381526020016000151581525060016000600481526020019081526020016000206000820151816000019081620002c49190620007e5565b506020820151816001015560408201518160020160006101000a81548160ff02191690831515021790555090505060405180606001604052806040518060400160405280600581526020017f736c6f74680000000000000000000000000000000000000000000000000000008152508152602001600a81526020016000151581525060016000600581526020019081526020016000206000820151816000019081620003719190620007e5565b506020820151816001015560408201518160020160006101000a81548160ff02191690831515021790555090505060405180606001604052806040518060400160405280600681526020017f647261676f6e000000000000000000000000000000000000000000000000000081525081526020016103e8815260200160011515815250600160006006815260200190815260200160002060008201518160000190816200041f9190620007e5565b506020820151816001015560408201518160020160006101000a81548160ff02191690831515021790555090505060405180606001604052806040518060400160405280600981526020017f6e616e6f2d626f747300000000000000000000000000000000000000000000008152508152602001620186a081526020016001151581525060016000600781526020019081526020016000206000820151816000019081620004ce9190620007e5565b506020820151816001015560408201518160020160006101000a81548160ff02191690831515021790555090505050620008cc565b600080fd5b6000819050919050565b6200051d8162000508565b81146200052957600080fd5b50565b6000815190506200053d8162000512565b92915050565b6000602082840312156200055c576200055b62000503565b5b60006200056c848285016200052c565b91505092915050565b600081519050919050565b7f4e487b7100000000000000000000000000000000000000000000000000000000600052604160045260246000fd5b7f4e487b7100000000000000000000000000000000000000000000000000000000600052602260045260246000fd5b60006002820490506001821680620005f757607f821691505b6020821081036200060d576200060c620005af565b5b50919050565b60008190508160005260206000209050919050565b60006020601f8301049050919050565b600082821b905092915050565b600060088302620006777fffffffffffffffffffffffffffffffffffffffffffffffffffffffffffffffff8262000638565b62000683868362000638565b95508019841693508086168417925050509392505050565b6000819050919050565b6000620006c6620006c0620006ba8462000508565b6200069b565b62000508565b9050919050565b6000819050919050565b620006e283620006a5565b620006fa620006f182620006cd565b84845462000645565b825550505050565b600090565b6200071162000702565b6200071e818484620006d7565b505050565b5b8181101562000746576200073a60008262000707565b60018101905062000724565b5050565b601f82111562000795576200075f8162000613565b6200076a8462000628565b810160208510156200077a578190505b62000792620007898562000628565b83018262000723565b50505b505050565b600082821c905092915050565b6000620007ba600019846008026200079a565b1980831691505092915050565b6000620007d58383620007a7565b9150826002028217905092915050565b620007f08262000575565b67ffffffffffffffff8111156200080c576200080b62000580565b5b620008188254620005de565b620008258282856200074a565b600060209050601f8311600181146200085d576000841562000848578287015190505b620008548582620007c7565b865550620008c4565b601f1984166200086d8662000613565b60005b82811015620008975784890151825560018201915060208501945060208101905062000870565b86831015620008b75784890151620008b3601f891682620007a7565b8355505b6001600288020188555050505b505050505050565b61044580620008dc6000396000f3fe608060405234801561001057600080fd5b50600436106100415760003560e01c806310c605a41461004657806369faa19314610078578063c0e6922114610096575b600080fd5b610060600480360381019061005b91906101e4565b6100c6565b60405161006f939291906102cb565b60405180910390f35b610080610185565b60405161008d9190610309565b60405180910390f35b6100b060048036038101906100ab9190610382565b61018b565b6040516100bd9190610309565b60405180910390f35b60016020528060005260406000206000915090508060000180546100e9906103de565b80601f0160208091040260200160405190810160405280929190818152602001828054610115906103de565b80156101625780601f1061013757610100808354040283529160200191610162565b820191906000526020600020905b81548152906001019060200180831161014557829003601f168201915b5050505050908060010154908060020160009054906101000a900460ff16905083565b60005481565b60026020528060005260406000206000915090508060000154905081565b600080fd5b6000819050919050565b6101c1816101ae565b81146101cc57600080fd5b50565b6000813590506101de816101b8565b92915050565b6000602082840312156101fa576101f96101a9565b5b6000610208848285016101cf565b91505092915050565b600081519050919050565b600082825260208201905092915050565b60005b8381101561024b578082015181840152602081019050610230565b60008484015250505050565b6000601f19601f8301169050919050565b600061027382610211565b61027d818561021c565b935061028d81856020860161022d565b61029681610257565b840191505092915050565b6102aa816101ae565b82525050565b60008115159050919050565b6102c5816102b0565b82525050565b600060608201905081810360008301526102e58186610268565b90506102f460208301856102a1565b61030160408301846102bc565b949350505050565b600060208201905061031e60008301846102a1565b92915050565b600073ffffffffffffffffffffffffffffffffffffffff82169050919050565b600061034f82610324565b9050919050565b61035f81610344565b811461036a57600080fd5b50565b60008135905061037c81610356565b92915050565b600060208284031215610398576103976101a9565b5b60006103a68482850161036d565b91505092915050565b7f4e487b7100000000000000000000000000000000000000000000000000000000600052602260045260246000fd5b600060028204905060018216806103f657607f821691505b602082108103610409576104086103af565b5b5091905056fea2646970667358221220b7f4f475ec18d544bd68e889eb5e3bbc88070e4f622368b6964b9748bf4b0b2264736f6c63430008180033",
  "linkReferences": {},
  "deployedLinkReferences": {}
}