{
  "_format": "hh-sol-artifact-1",
  "contractName": "BattleContract",
  "sourceName": "contracts/BattleContract.sol",
  "abi": [
    {
      "inputs": [
        {
          "internalType": "uint256",
          "name": "_battleMasterChampionId",
          "type": "uint256"
        }
      ],
      "stateMutability": "nonpayable",
      "type": "constructor"
    },
    {
      "inputs": [],
      "name": "battleMasterChampionId",
      "outputs": [
        {
          "internalType": "uint256",
          "name": "",
          "type": "uint256"
        }
      ],
      "stateMutability": "view",
      "type": "function"
    },
    {
      "inputs": [],
      "name": "battle_master_champion_id",
      "outputs": [
        {
          "internalType": "uint256",
          "name": "",
          "type": "uint256"
        }
      ],
      "stateMutability": "view",
      "type": "function"
    },
    {
      "inputs": [
        {
          "internalType": "address",
          "name": "",
          "type": "address"
        }
      ],
      "name": "challengerMap",
      "outputs": [
        {
          "internalType": "uint256",
          "name": "currentChampionId",
          "type": "uint256"
        }
      ],
      "stateMutability": "view",
      "type": "function"
    },
    {
      "inputs": [
        {
          "internalType": "uint256",
          "name": "",
          "type": "uint256"
        }
      ],
      "name": "championMap",
      "outputs": [
        {
          "internalType": "string",
          "name": "name",
          "type": "string"
        },
        {
          "internalType": "uint256",
          "name": "strength",
          "type": "uint256"
        },
        {
          "internalType": "bool",
          "name": "hidden",
          "type": "bool"
        }
      ],
      "stateMutability": "view",
      "type": "function"
    }
  ],
  "bytecode": "0x60806040523480156200001157600080fd5b5060405162000d5038038062000d50833981810160405281019062000037919062000543565b8060018190555060405180606001604052806040518060400160405280600481526020017f676e6174000000000000000000000000000000000000000000000000000000008152508152602001600181526020016000151581525060026000600181526020019081526020016000206000820151816000019081620000bd9190620007e5565b506020820151816001015560408201518160020160006101000a81548160ff02191690831515021790555090505060405180606001604052806040518060400160405280600581526020017f6d6f75736500000000000000000000000000000000000000000000000000000081525081526020016004815260200160001515815250600260006002815260200190815260200160002060008201518160000190816200016a9190620007e5565b506020820151816001015560408201518160020160006101000a81548160ff02191690831515021790555090505060405180606001604052806040518060400160405280600781526020017f7465726d697465000000000000000000000000000000000000000000000000008152508152602001600281526020016000151581525060026000600381526020019081526020016000206000820151816000019081620002179190620007e5565b506020820151816001015560408201518160020160006101000a81548160ff02191690831515021790555090505060405180606001604052806040518060400160405280600581526020017f736b756e6b0000000000000000000000000000000000000000000000000000008152508152602001600381526020016000151581525060026000600481526020019081526020016000206000820151816000019081620002c49190620007e5565b506020820151816001015560408201518160020160006101000a81548160ff02191690831515021790555090505060405180606001604052806040518060400160405280600581526020017f736c6f74680000000000000000000000000000000000000000000000000000008152508152602001600a81526020016000151581525060026000600581526020019081526020016000206000820151816000019081620003719190620007e5565b506020820151816001015560408201518160020160006101000a81548160ff02191690831515021790555090505060405180606001604052806040518060400160405280600681526020017f647261676f6e000000000000000000000000000000000000000000000000000081525081526020016103e8815260200160011515815250600260006006815260200190815260200160002060008201518160000190816200041f9190620007e5565b506020820151816001015560408201518160020160006101000a81548160ff02191690831515021790555090505060405180606001604052806040518060400160405280600981526020017f6e616e6f2d626f747300000000000000000000000000000000000000000000008152508152602001620186a081526020016001151581525060026000600781526020019081526020016000206000820151816000019081620004ce9190620007e5565b506020820151816001015560408201518160020160006101000a81548160ff02191690831515021790555090505050620008cc565b600080fd5b6000819050919050565b6200051d8162000508565b81146200052957600080fd5b50565b6000815190506200053d8162000512565b92915050565b6000602082840312156200055c576200055b62000503565b5b60006200056c848285016200052c565b91505092915050565b600081519050919050565b7f4e487b7100000000000000000000000000000000000000000000000000000000600052604160045260246000fd5b7f4e487b7100000000000000000000000000000000000000000000000000000000600052602260045260246000fd5b60006002820490506001821680620005f757607f821691505b6020821081036200060d576200060c620005af565b5b50919050565b60008190508160005260206000209050919050565b60006020601f8301049050919050565b600082821b905092915050565b600060088302620006777fffffffffffffffffffffffffffffffffffffffffffffffffffffffffffffffff8262000638565b62000683868362000638565b95508019841693508086168417925050509392505050565b6000819050919050565b6000620006c6620006c0620006ba8462000508565b6200069b565b62000508565b9050919050565b6000819050919050565b620006e283620006a5565b620006fa620006f182620006cd565b84845462000645565b825550505050565b600090565b6200071162000702565b6200071e818484620006d7565b505050565b5b8181101562000746576200073a60008262000707565b60018101905062000724565b5050565b601f82111562000795576200075f8162000613565b6200076a8462000628565b810160208510156200077a578190505b62000792620007898562000628565b83018262000723565b50505b505050565b600082821c905092915050565b6000620007ba600019846008026200079a565b1980831691505092915050565b6000620007d58383620007a7565b9150826002028217905092915050565b620007f08262000575565b67ffffffffffffffff8111156200080c576200080b62000580565b5b620008188254620005de565b620008258282856200074a565b600060209050601f8311600181146200085d576000841562000848578287015190505b620008548582620007c7565b865550620008c4565b601f1984166200086d8662000613565b60005b82811015620008975784890151825560018201915060208501945060208101905062000870565b86831015620008b75784890151620008b3601f891682620007a7565b8355505b6001600288020188555050505b505050505050565b61047480620008dc6000396000f3fe608060405234801561001057600080fd5b506004361061004c5760003560e01c8063056c38fb1461005157806310c605a41461006f57806369faa193146100a1578063c0e69221146100bf575b600080fd5b6100596100ef565b60405161006691906101f1565b60405180910390f35b6100896004803603810190610084919061023d565b6100f5565b60405161009893929190610315565b60405180910390f35b6100a96101b4565b6040516100b691906101f1565b60405180910390f35b6100d960048036038101906100d491906103b1565b6101ba565b6040516100e691906101f1565b60405180910390f35b60015481565b60026020528060005260406000206000915090508060000180546101189061040d565b80601f01602080910402602001604051908101604052809291908181526020018280546101449061040d565b80156101915780601f1061016657610100808354040283529160200191610191565b820191906000526020600020905b81548152906001019060200180831161017457829003601f168201915b5050505050908060010154908060020160009054906101000a900460ff16905083565b60005481565b60036020528060005260406000206000915090508060000154905081565b6000819050919050565b6101eb816101d8565b82525050565b600060208201905061020660008301846101e2565b92915050565b600080fd5b61021a816101d8565b811461022557600080fd5b50565b60008135905061023781610211565b92915050565b6000602082840312156102535761025261020c565b5b600061026184828501610228565b91505092915050565b600081519050919050565b600082825260208201905092915050565b60005b838110156102a4578082015181840152602081019050610289565b60008484015250505050565b6000601f19601f8301169050919050565b60006102cc8261026a565b6102d68185610275565b93506102e6818560208601610286565b6102ef816102b0565b840191505092915050565b60008115159050919050565b61030f816102fa565b82525050565b6000606082019050818103600083015261032f81866102c1565b905061033e60208301856101e2565b61034b6040830184610306565b949350505050565b600073ffffffffffffffffffffffffffffffffffffffff82169050919050565b600061037e82610353565b9050919050565b61038e81610373565b811461039957600080fd5b50565b6000813590506103ab81610385565b92915050565b6000602082840312156103c7576103c661020c565b5b60006103d58482850161039c565b91505092915050565b7f4e487b7100000000000000000000000000000000000000000000000000000000600052602260045260246000fd5b6000600282049050600182168061042557607f821691505b602082108103610438576104376103de565b5b5091905056fea2646970667358221220480edbf98e3526fce199c98594f428837b31f3fc7eda9b9ed9cfcfcff9540e6f64736f6c63430008180033",
  "linkReferences": {},
  "deployedLinkReferences": {}
}